{
  "contractName": "Decentragram",
  "abi": [
    {
      "anonymous": false,
      "inputs": [
        {
          "indexed": false,
          "internalType": "uint256",
          "name": "id",
          "type": "uint256"
        },
        {
          "indexed": false,
          "internalType": "string",
          "name": "hash",
          "type": "string"
        },
        {
          "indexed": false,
          "internalType": "string",
          "name": "description",
          "type": "string"
        },
        {
          "indexed": false,
          "internalType": "uint256",
          "name": "tipAmount",
          "type": "uint256"
        },
        {
          "indexed": false,
          "internalType": "address",
          "name": "author",
          "type": "address"
        }
      ],
      "name": "ImageCreated",
      "type": "event"
    },
    {
      "anonymous": false,
      "inputs": [
        {
          "indexed": false,
          "internalType": "uint256",
          "name": "id",
          "type": "uint256"
        },
        {
          "indexed": false,
          "internalType": "string",
          "name": "hash",
          "type": "string"
        },
        {
          "indexed": false,
          "internalType": "string",
          "name": "description",
          "type": "string"
        },
        {
          "indexed": false,
          "internalType": "uint256",
          "name": "tipAmount",
          "type": "uint256"
        },
        {
          "indexed": false,
          "internalType": "address",
          "name": "author",
          "type": "address"
        }
      ],
      "name": "ImageTipped",
      "type": "event"
    },
    {
      "inputs": [],
      "name": "imageCount",
      "outputs": [
        {
          "internalType": "uint256",
          "name": "",
          "type": "uint256"
        }
      ],
      "stateMutability": "view",
      "type": "function",
      "constant": true
    },
    {
      "inputs": [
        {
          "internalType": "uint256",
          "name": "",
          "type": "uint256"
        }
      ],
      "name": "images",
      "outputs": [
        {
          "internalType": "uint256",
          "name": "id",
          "type": "uint256"
        },
        {
          "internalType": "string",
          "name": "hash",
          "type": "string"
        },
        {
          "internalType": "string",
          "name": "description",
          "type": "string"
        },
        {
          "internalType": "uint256",
          "name": "tipAmount",
          "type": "uint256"
        },
        {
          "internalType": "address",
          "name": "author",
          "type": "address"
        }
      ],
      "stateMutability": "view",
      "type": "function",
      "constant": true
    },
    {
      "inputs": [],
      "name": "name",
      "outputs": [
        {
          "internalType": "string",
          "name": "",
          "type": "string"
        }
      ],
      "stateMutability": "view",
      "type": "function",
      "constant": true
    },
    {
      "inputs": [
        {
          "internalType": "string",
          "name": "_imgHash",
          "type": "string"
        },
        {
          "internalType": "string",
          "name": "_description",
          "type": "string"
        }
      ],
      "name": "uploadImage",
      "outputs": [],
      "stateMutability": "nonpayable",
      "type": "function"
    },
    {
      "inputs": [
        {
          "internalType": "uint256",
          "name": "_id",
          "type": "uint256"
        }
      ],
      "name": "tipImageOwner",
      "outputs": [],
      "stateMutability": "payable",
      "type": "function",
      "payable": true
    }
  ],
  "bytecode": "0x60806040526040518060400160405280600c81526020017f446563656e7472616772616d000000000000000000000000000000000000000081525060009080519060200190620000519291906200006b565b5060006001553480156200006457600080fd5b5062000180565b82805462000079906200011b565b90600052602060002090601f0160209004810192826200009d5760008555620000e9565b82601f10620000b857805160ff1916838001178555620000e9565b82800160010185558215620000e9579182015b82811115620000e8578251825591602001919060010190620000cb565b5b509050620000f89190620000fc565b5090565b5b8082111562000117576000816000905550600101620000fd565b5090565b600060028204905060018216806200013457607f821691505b602082108114156200014b576200014a62000151565b5b50919050565b7f4e487b7100000000000000000000000000000000000000000000000000000000600052602260045260246000fd5b610de180620001906000396000f3fe60806040526004361061004a5760003560e01c806306fdde031461004f578063848564821461007a5780638567ade8146100bb57806392053b63146100d7578063a91b831414610102575b600080fd5b34801561005b57600080fd5b5061006461012b565b6040516100719190610a19565b60405180910390f35b34801561008657600080fd5b506100a1600480360381019061009c919061098a565b6101b9565b6040516100b2959493929190610ab7565b60405180910390f35b6100d560048036038101906100d0919061098a565b61031f565b005b3480156100e357600080fd5b506100ec610653565b6040516100f99190610a3b565b60405180910390f35b34801561010e57600080fd5b506101296004803603810190610124919061091e565b610659565b005b6000805461013890610c7b565b80601f016020809104026020016040519081016040528092919081815260200182805461016490610c7b565b80156101b15780601f10610186576101008083540402835291602001916101b1565b820191906000526020600020905b81548152906001019060200180831161019457829003601f168201915b505050505081565b60026020528060005260406000206000915090508060000154908060010180546101e290610c7b565b80601f016020809104026020016040519081016040528092919081815260200182805461020e90610c7b565b801561025b5780601f106102305761010080835404028352916020019161025b565b820191906000526020600020905b81548152906001019060200180831161023e57829003601f168201915b50505050509080600201805461027090610c7b565b80601f016020809104026020016040519081016040528092919081815260200182805461029c90610c7b565b80156102e95780601f106102be576101008083540402835291602001916102e9565b820191906000526020600020905b8154815290600101906020018083116102cc57829003601f168201915b5050505050908060030154908060040160009054906101000a900473ffffffffffffffffffffffffffffffffffffffff16905085565b60008111801561033157506001548111155b61033a57600080fd5b6000600260008381526020019081526020016000206040518060a00160405290816000820154815260200160018201805461037490610c7b565b80601f01602080910402602001604051908101604052809291908181526020018280546103a090610c7b565b80156103ed5780601f106103c2576101008083540402835291602001916103ed565b820191906000526020600020905b8154815290600101906020018083116103d057829003601f168201915b5050505050815260200160028201805461040690610c7b565b80601f016020809104026020016040519081016040528092919081815260200182805461043290610c7b565b801561047f5780601f106104545761010080835404028352916020019161047f565b820191906000526020600020905b81548152906001019060200180831161046257829003601f168201915b50505050508152602001600382015481526020016004820160009054906101000a900473ffffffffffffffffffffffffffffffffffffffff1673ffffffffffffffffffffffffffffffffffffffff1673ffffffffffffffffffffffffffffffffffffffff168152505090506000816080015190508073ffffffffffffffffffffffffffffffffffffffff166108fc349081150290604051600060405180830381858888f19350505050158015610539573d6000803e3d6000fd5b5034826060015161054a9190610b95565b826060018181525050816002600085815260200190815260200160002060008201518160000155602082015181600101908051906020019061058d9291906107fe565b5060408201518160020190805190602001906105aa9291906107fe565b506060820151816003015560808201518160040160006101000a81548173ffffffffffffffffffffffffffffffffffffffff021916908373ffffffffffffffffffffffffffffffffffffffff1602179055509050507fc1d8dfa99b3f84f95d3f0bc4a768addeb97b83b20aef7f9cb6729e126bafd2f9826000015183602001518460400151856060015185604051610646959493929190610ab7565b60405180910390a1505050565b60015481565b8181600082511161066957600080fd5b600081511161067757600080fd5b600073ffffffffffffffffffffffffffffffffffffffff163373ffffffffffffffffffffffffffffffffffffffff1614156106b157600080fd5b600160008154809291906106c490610cad565b91905055506040518060a001604052806001548152602001858152602001848152602001600081526020013373ffffffffffffffffffffffffffffffffffffffff168152506002600060015481526020019081526020016000206000820151816000015560208201518160010190805190602001906107449291906107fe565b5060408201518160020190805190602001906107619291906107fe565b506060820151816003015560808201518160040160006101000a81548173ffffffffffffffffffffffffffffffffffffffff021916908373ffffffffffffffffffffffffffffffffffffffff1602179055509050507fc1d8dfa99b3f84f95d3f0bc4a768addeb97b83b20aef7f9cb6729e126bafd2f960015485856000336040516107f0959493929190610a56565b60405180910390a150505050565b82805461080a90610c7b565b90600052602060002090601f01602090048101928261082c5760008555610873565b82601f1061084557805160ff1916838001178555610873565b82800160010185558215610873579182015b82811115610872578251825591602001919060010190610857565b5b5090506108809190610884565b5090565b5b8082111561089d576000816000905550600101610885565b5090565b60006108b46108af84610b49565b610b18565b9050828152602081018484840111156108cc57600080fd5b6108d7848285610c39565b509392505050565b600082601f8301126108f057600080fd5b81356109008482602086016108a1565b91505092915050565b60008135905061091881610d94565b92915050565b6000806040838503121561093157600080fd5b600083013567ffffffffffffffff81111561094b57600080fd5b610957858286016108df565b925050602083013567ffffffffffffffff81111561097457600080fd5b610980858286016108df565b9150509250929050565b60006020828403121561099c57600080fd5b60006109aa84828501610909565b91505092915050565b6109bc81610beb565b82525050565b6109cb81610c27565b82525050565b60006109dc82610b79565b6109e68185610b84565b93506109f6818560208601610c48565b6109ff81610d83565b840191505092915050565b610a1381610c1d565b82525050565b60006020820190508181036000830152610a3381846109d1565b905092915050565b6000602082019050610a506000830184610a0a565b92915050565b600060a082019050610a6b6000830188610a0a565b8181036020830152610a7d81876109d1565b90508181036040830152610a9181866109d1565b9050610aa060608301856109c2565b610aad60808301846109b3565b9695505050505050565b600060a082019050610acc6000830188610a0a565b8181036020830152610ade81876109d1565b90508181036040830152610af281866109d1565b9050610b016060830185610a0a565b610b0e60808301846109b3565b9695505050505050565b6000604051905081810181811067ffffffffffffffff82111715610b3f57610b3e610d54565b5b8060405250919050565b600067ffffffffffffffff821115610b6457610b63610d54565b5b601f19601f8301169050602081019050919050565b600081519050919050565b600082825260208201905092915050565b6000610ba082610c1d565b9150610bab83610c1d565b9250827fffffffffffffffffffffffffffffffffffffffffffffffffffffffffffffffff03821115610be057610bdf610cf6565b5b828201905092915050565b6000610bf682610bfd565b9050919050565b600073ffffffffffffffffffffffffffffffffffffffff82169050919050565b6000819050919050565b6000610c3282610c1d565b9050919050565b82818337600083830152505050565b60005b83811015610c66578082015181840152602081019050610c4b565b83811115610c75576000848401525b50505050565b60006002820490506001821680610c9357607f821691505b60208210811415610ca757610ca6610d25565b5b50919050565b6000610cb882610c1d565b91507fffffffffffffffffffffffffffffffffffffffffffffffffffffffffffffffff821415610ceb57610cea610cf6565b5b600182019050919050565b7f4e487b7100000000000000000000000000000000000000000000000000000000600052601160045260246000fd5b7f4e487b7100000000000000000000000000000000000000000000000000000000600052602260045260246000fd5b7f4e487b7100000000000000000000000000000000000000000000000000000000600052604160045260246000fd5b6000601f19601f8301169050919050565b610d9d81610c1d565b8114610da857600080fd5b5056fea264697066735822122062212677f173e715cc442416e5b726ff2e53f68988a1d30ff71fe82c5dbd61a164736f6c63430008000033",
  "immutableReferences": {},
  "source": "// SPDX-License-Identifier: UNLICENSED\n\npragma solidity ^0.8.0;\n\ncontract Decentragram {\n  string public name = 'Decentragram';\n\n  // Store Images\n  uint public imageCount = 0;\n  \n  mapping(uint => Image) public images;\n\n  struct Image {\n    uint id;\n    string hash;\n    string description;\n    uint tipAmount;\n    address author;\n  }\n\n  event ImageCreated (\n    uint id,\n    string hash,\n    string description,\n    uint tipAmount,\n    address author\n  );\n\n  event ImageTipped (\n    uint id,\n    string hash,\n    string description,\n    uint tipAmount,\n    address author\n  );\n\n  // Create Images\n  function uploadImage(\n    string memory _imgHash,\n    string memory _description\n  ) validateArgs(_imgHash, _description) external {\n\n    // Increment image id\n    imageCount++;\n\n    // Add image to contract\n    images[imageCount] = Image(\n      imageCount, \n      _imgHash, \n      _description, \n      0, \n      msg.sender\n    );\n\n    // Trigger an event\n    emit ImageCreated(imageCount, _imgHash, _description, 0, msg.sender);\n  }\n\n  // Tip Images\n  function tipImageOwner(uint _id) external payable {\n    // Make sure the id is valid\n    require(_id > 0 && _id <= imageCount);\n\n    // Fetch the image\n    Image memory _image = images[_id];\n    \n    // Fetch the author\n    address _author = _image.author;\n    \n    // Pay the author by sending them Ether\n    payable(_author).transfer(msg.value);\n    \n    // Increment the tip amount\n    _image.tipAmount = _image.tipAmount + msg.value;\n    \n    // Update the image\n    images[_id] = _image;\n\n    // Trigger an event\n    emit ImageCreated(_image.id, _image.hash, _image.description, _image.tipAmount, _author);\n  }\n\n  // Modifier\n  modifier validateArgs(\n    string memory _imgHash,\n    string memory _description\n  ) {\n    // Make sure the image hash exists\n    require(bytes(_imgHash).length > 0);\n    // Make sure the description exists\n    require(bytes(_description).length > 0);\n    // Make sure uploader address exists\n    require(msg.sender != address(0x0));\n    _;\n  }\n}",
  "sourcePath": "/Applications/Projetos/Blockchain/dappUniversity/decentragram/backend/contracts/Decentragram.sol",
  "compiler": {
    "name": "solc",
    "version": "0.8.0+commit.c7dfd78e.Emscripten.clang"
  },
  "schemaVersion": "3.4.1",
  "updatedAt": "2021-08-12T22:26:41.169Z",
  "networkType": "ethereum",
  "devdoc": {
    "kind": "dev",
    "methods": {},
    "version": 1
  },
  "userdoc": {
    "kind": "user",
    "methods": {},
    "version": 1
  }
}